:020000040800F2
:1000000038040120DD010008E5010008E7010008CF
:10001000E9010008EB010008ED0100080000000004
:10002000000000000000000000000000EF010008D8
:10003000F101000800000000F3010008F5010008CC
:10004000F7010008F7010008F7010008F7010008B0
:10005000F7010008F7010008F7010008F7010008A0
:10006000F7010008F7010008F7010008F701000890
:10007000F7010008F7010008F7010008F701000880
:10008000F7010008F7010008F7010008F701000870
:10009000F7010008F7010008F7010008F701000860
:1000A000F7010008F7010008F7010008F701000850
:1000B000F7010008F7010008F7010008F701000840
:1000C000F7010008F7010008F7010008F701000830
:1000D000F7010008F7010008F7010008F701000820
:1000E000F7010008F7010008F7010008F701000810
:1000F000F7010008F7010008F7010008F701000800
:10010000F7010008F7010008F7010008F7010008EF
:10011000F7010008F7010008F7010008F7010008DF
:10012000F7010008F7010008F7010008F7010008CF
:10013000F7010008F7010008F7010008F7010008BF
:10014000F7010008F7010008F7010008F7010008AF
:10015000F7010008F7010008F7010008F70100089F
:10016000F7010008F7010008F7010008F70100088F
:10017000F7010008F7010008F7010008000000007F
:10018000F7010008F7010008F7010008F70100086F
:10019000F7010008F7010008F7010008F70100085F
:1001A000F7010008F7010008F7010008F70100084F
:1001B000F7010008F7010008F7010008F70100083F
:1001C000F7010008F7010008DFF80CD000F018F87C
:1001D00000480047A902000838040120064880476B
:1001E00006480047FEE7FEE7FEE7FEE7FEE7FEE71C
:1001F000FEE7FEE7FEE7FEE725020008C90100086A
:10020000064C074D06E0E06840F0010394E8070063
:1002100098471034AC42F6D3FFF7DAFF3C030008EE
:100220005C0300081448006840F47000124908603C
:100230001248006840F001001049086000200F4992
:10024000083108600D4800680D4908400B490860F6
:100250000C48091D0860081F006820F48020091F51
:100260000860002005490C3108604FF00060024929
:10027000803908607047000088ED00E000380240D7
:10028000FFFFF6FE1030002402E008C8121F08C16C
:10029000002AFAD170477047002001E001C1121F07
:1002A000002AFBD17047000004201E49086041F27B
:1002B00055501D4908600020091D086041F2555045
:1002C000091D08600020091D086029E01748184929
:1002D000096850F82100144914310860081F0068AB
:1002E00000F40050B0F5005F13D100201149086000
:1002F00004E010480068401C0E4908600D48006882
:100300000D4909688842F4DB09480068401C084927
:100310000860074800680A2802D1002004490860E4
:10032000D4E70000303802400008024000000120FD
:100330002C00012028000120300001205C0300086F
:10034000000001203400000088020008900300082B
:100350003400012004040000980200087E00000020
:10036000300000006D000000790000003300000044
:100370005B0000005F000000700000007F000000D4
:1003800073000000000000000000000050C30000E7
:04000005080001DD11
:00000001FF
